{
  "abi": [
    {
      "inputs": [],
      "stateMutability": "nonpayable",
      "type": "constructor"
    },
    {
      "inputs": [
        {
          "internalType": "uint256",
          "name": "_eth",
          "type": "uint256"
        }
      ],
      "name": "ETHtoUSD",
      "outputs": [
        {
          "internalType": "uint256",
          "name": "",
          "type": "uint256"
        }
      ],
      "stateMutability": "pure",
      "type": "function"
    },
    {
      "inputs": [
        {
          "internalType": "address",
          "name": "",
          "type": "address"
        }
      ],
      "name": "addrtoamntpaid",
      "outputs": [
        {
          "internalType": "uint256",
          "name": "",
          "type": "uint256"
        }
      ],
      "stateMutability": "view",
      "type": "function"
    },
    {
      "inputs": [
        {
          "internalType": "address",
          "name": "",
          "type": "address"
        }
      ],
      "name": "addrtoposinmapp",
      "outputs": [
        {
          "internalType": "uint256",
          "name": "",
          "type": "uint256"
        }
      ],
      "stateMutability": "view",
      "type": "function"
    },
    {
      "inputs": [
        {
          "internalType": "uint256",
          "name": "",
          "type": "uint256"
        }
      ],
      "name": "bookers",
      "outputs": [
        {
          "internalType": "address",
          "name": "",
          "type": "address"
        }
      ],
      "stateMutability": "view",
      "type": "function"
    },
    {
      "inputs": [
        {
          "internalType": "address",
          "name": "",
          "type": "address"
        }
      ],
      "name": "bookertoroom",
      "outputs": [
        {
          "internalType": "uint256",
          "name": "roomNo",
          "type": "uint256"
        },
        {
          "internalType": "bool",
          "name": "isOccupied",
          "type": "bool"
        }
      ],
      "stateMutability": "view",
      "type": "function"
    },
    {
      "inputs": [
        {
          "internalType": "uint256",
          "name": "_index",
          "type": "uint256"
        },
        {
          "internalType": "string",
          "name": "_name",
          "type": "string"
        }
      ],
      "name": "bookroom",
      "outputs": [],
      "stateMutability": "payable",
      "type": "function"
    },
    {
      "inputs": [],
      "name": "createdefhot",
      "outputs": [
        {
          "internalType": "uint256",
          "name": "",
          "type": "uint256"
        }
      ],
      "stateMutability": "nonpayable",
      "type": "function"
    },
    {
      "inputs": [
        {
          "internalType": "uint256",
          "name": "__index",
          "type": "uint256"
        }
      ],
      "name": "deoccupy",
      "outputs": [],
      "stateMutability": "nonpayable",
      "type": "function"
    },
    {
      "inputs": [],
      "name": "hcount",
      "outputs": [
        {
          "internalType": "uint256",
          "name": "",
          "type": "uint256"
        }
      ],
      "stateMutability": "view",
      "type": "function"
    },
    {
      "inputs": [
        {
          "internalType": "uint256",
          "name": "",
          "type": "uint256"
        }
      ],
      "name": "hotelroomsarray",
      "outputs": [
        {
          "internalType": "uint256",
          "name": "roomNo",
          "type": "uint256"
        },
        {
          "internalType": "bool",
          "name": "isOccupied",
          "type": "bool"
        }
      ],
      "stateMutability": "view",
      "type": "function"
    },
    {
      "inputs": [
        {
          "internalType": "uint256",
          "name": "_index",
          "type": "uint256"
        },
        {
          "internalType": "string",
          "name": "_name",
          "type": "string"
        }
      ],
      "name": "leaveroom",
      "outputs": [],
      "stateMutability": "nonpayable",
      "type": "function"
    },
    {
      "inputs": [
        {
          "internalType": "uint256",
          "name": "_num",
          "type": "uint256"
        },
        {
          "internalType": "bool",
          "name": "_isoccupied",
          "type": "bool"
        }
      ],
      "name": "newhotel",
      "outputs": [],
      "stateMutability": "nonpayable",
      "type": "function"
    },
    {
      "inputs": [
        {
          "internalType": "uint256",
          "name": "__index",
          "type": "uint256"
        }
      ],
      "name": "occupy",
      "outputs": [],
      "stateMutability": "nonpayable",
      "type": "function"
    },
    {
      "inputs": [],
      "name": "owner",
      "outputs": [
        {
          "internalType": "address payable",
          "name": "",
          "type": "address"
        }
      ],
      "stateMutability": "view",
      "type": "function"
    },
    {
      "inputs": [
        {
          "internalType": "string",
          "name": "__name",
          "type": "string"
        }
      ],
      "name": "retrievebooker",
      "outputs": [
        {
          "internalType": "address",
          "name": "",
          "type": "address"
        }
      ],
      "stateMutability": "view",
      "type": "function"
    },
    {
      "inputs": [
        {
          "internalType": "address",
          "name": "_addr",
          "type": "address"
        }
      ],
      "name": "retrievemap",
      "outputs": [
        {
          "internalType": "uint256",
          "name": "",
          "type": "uint256"
        }
      ],
      "stateMutability": "view",
      "type": "function"
    },
    {
      "inputs": [
        {
          "internalType": "address",
          "name": "_addr",
          "type": "address"
        }
      ],
      "name": "retrievemappos",
      "outputs": [
        {
          "internalType": "uint256",
          "name": "",
          "type": "uint256"
        }
      ],
      "stateMutability": "view",
      "type": "function"
    },
    {
      "inputs": [],
      "name": "room1",
      "outputs": [
        {
          "internalType": "uint256",
          "name": "roomNo",
          "type": "uint256"
        },
        {
          "internalType": "bool",
          "name": "isOccupied",
          "type": "bool"
        }
      ],
      "stateMutability": "view",
      "type": "function"
    },
    {
      "inputs": [],
      "name": "room2",
      "outputs": [
        {
          "internalType": "uint256",
          "name": "roomNo",
          "type": "uint256"
        },
        {
          "internalType": "bool",
          "name": "isOccupied",
          "type": "bool"
        }
      ],
      "stateMutability": "view",
      "type": "function"
    },
    {
      "inputs": [],
      "name": "room3",
      "outputs": [
        {
          "internalType": "uint256",
          "name": "roomNo",
          "type": "uint256"
        },
        {
          "internalType": "bool",
          "name": "isOccupied",
          "type": "bool"
        }
      ],
      "stateMutability": "view",
      "type": "function"
    },
    {
      "inputs": [],
      "name": "room4",
      "outputs": [
        {
          "internalType": "uint256",
          "name": "roomNo",
          "type": "uint256"
        },
        {
          "internalType": "bool",
          "name": "isOccupied",
          "type": "bool"
        }
      ],
      "stateMutability": "view",
      "type": "function"
    },
    {
      "inputs": [],
      "name": "room5",
      "outputs": [
        {
          "internalType": "uint256",
          "name": "roomNo",
          "type": "uint256"
        },
        {
          "internalType": "bool",
          "name": "isOccupied",
          "type": "bool"
        }
      ],
      "stateMutability": "view",
      "type": "function"
    },
    {
      "inputs": [
        {
          "internalType": "string",
          "name": "",
          "type": "string"
        }
      ],
      "name": "roomtobooker",
      "outputs": [
        {
          "internalType": "address",
          "name": "",
          "type": "address"
        }
      ],
      "stateMutability": "view",
      "type": "function"
    }
  ],
  "bytecode": "6005600281815560016080819052600060a0819052600991909155600a805460ff1990811690915560c083905260e0829052600b92909255600c8054831690556003610100819052610120829052600d55600e8054831690556004610140819052610160829052600f5560108054831690556101c06040526101808390526101a05260119190915560128054909116905534801561009c57600080fd5b50600080546001600160a01b031916331790556100b76100bd565b506101dc565b600780546001808201835560008390526009547fa66cc928b5edb82af9bd49922954155ab7b0942694bea4ce44661d9a8736c688600293840281810192909255600a547fa66cc928b5edb82af9bd49922954155ab7b0942694bea4ce44661d9a8736c689928301805460ff1990811660ff93841615151790915586548086018855600b5490870280850191909155600c5490850180548316918416151591909117905586548086018855600d5490870280850191909155600e5490850180548316918416151591909117905586548086018855600f549087028085019190915560105490850180548316918416151591909117905586549485018755601154949095029182019390935560125491018054909316911615151790555490565b610f57806101eb6000396000f3fe6080604052600436106101405760003560e01c80639777d8e3116100b6578063bd8a48f81161006f578063bd8a48f814610333578063d6edd95614610353578063e61362e414610373578063f028cad514610393578063f76afce8146103b3578063f7b0f74b146103d357610140565b80639777d8e31461028b5780639f5f187e146102ab578063a22c93c6146102cb578063a35cb356146102de578063afaae0ee146102fe578063b3e7656f1461031e57610140565b806352c1901e1161010857806352c1901e146101ea57806376025f11146101ff5780637b71726a1461021f5780638c92a350146102345780638da5cb5b1461026157806393d51dd41461027657610140565b80630e8a523e14610145578063168df881146101715780631fee3fb51461019e5780632b4fc2bc146101b357806343fd84c9146101c8575b600080fd5b34801561015157600080fd5b5061015a6103f3565b604051610168929190610e5c565b60405180910390f35b34801561017d57600080fd5b5061019161018c366004610bf0565b6103ff565b6040516101689190610e53565b3480156101aa57600080fd5b50610191610411565b3480156101bf57600080fd5b5061015a610530565b3480156101d457600080fd5b506101e86101e3366004610c52565b61053c565b005b3480156101f657600080fd5b5061015a61058e565b34801561020b57600080fd5b5061019161021a366004610bf0565b61059a565b34801561022b57600080fd5b506101916105cf565b34801561024057600080fd5b5061025461024f366004610c17565b6105d5565b6040516101689190610d1b565b34801561026d57600080fd5b50610254610609565b34801561028257600080fd5b5061015a610618565b34801561029757600080fd5b506101e86102a6366004610c9d565b610624565b3480156102b757600080fd5b506102546102c6366004610c17565b610755565b6101e86102d9366004610c9d565b61077b565b3480156102ea57600080fd5b5061015a6102f9366004610bf0565b610989565b34801561030a57600080fd5b506101e8610319366004610c52565b6109a5565b34801561032a57600080fd5b5061015a6109b3565b34801561033f57600080fd5b506101e861034e366004610c6a565b6109bf565b34801561035f57600080fd5b5061019161036e366004610bf0565b610acc565b34801561037f57600080fd5b5061015a61038e366004610c52565b610ade565b34801561039f57600080fd5b506101916103ae366004610c52565b610b0f565b3480156103bf57600080fd5b506101916103ce366004610bf0565b610b1e565b3480156103df57600080fd5b506102546103ee366004610c52565b610b45565b600954600a5460ff1682565b60066020526000908152604090205481565b600780546001808201835560008390526009547fa66cc928b5edb82af9bd49922954155ab7b0942694bea4ce44661d9a8736c688600293840281810192909255600a547fa66cc928b5edb82af9bd49922954155ab7b0942694bea4ce44661d9a8736c689928301805460ff1990811660ff93841615151790915586548086018855600b5490870280850191909155600c5490850180548316918416151591909117905586548086018855600d5490870280850191909155600e5490850180548316918416151591909117905586548086018855600f549087028085019190915560105490850180548316918416151591909117905586549485018755601154949095029182019390935560125491018054909316911615151790555490565b600d54600e5460ff1682565b6000600761054b600184610ec3565b8154811061056957634e487b7160e01b600052603260045260246000fd5b60009182526020909120600290910201600101805460ff191691151591909117905550565b60115460125460ff1682565b6001600160a01b03811660009081526005602052604081205481906105c890670de0b6b3a764000090610e84565b9392505050565b60025481565b6000806004836040516105e89190610ce2565b908152604051908190036020019020546001600160a01b0316915050919050565b6000546001600160a01b031681565b600b54600c5460ff1682565b60006007610633600185610ec3565b8154811061065157634e487b7160e01b600052603260045260246000fd5b600091825260209182902060408051808201909152600290920201805480835260019182015460ff161515938301849052919350909114801561069357508381145b80156106c857506004836040516106aa9190610ce2565b90815260405190819003602001902054336001600160a01b03909116145b6106ed5760405162461bcd60e51b81526004016106e490610e34565b60405180910390fd5b6106f68461053c565b600061070133610b1e565b90506008818154811061072457634e487b7160e01b600052603260045260246000fd5b600091825260209091200180546001600160a01b03191690556001805461074b9190610ec3565b6001555050505050565b80516020818301810180516004825292820191909301209152546001600160a01b031681565b6101f48061078834610b0f565b10156107a65760405162461bcd60e51b81526004016106e490610d5e565b600060076107b5600186610ec3565b815481106107d357634e487b7160e01b600052603260045260246000fd5b600091825260209182902060408051808201909152600290920201805482526001015460ff161580159282019290925291506108215760405162461bcd60e51b81526004016106e490610d88565b600080546040516001600160a01b03909116913480156108fc02929091818181858888f1935050505015801561085b573d6000803e3d6000fd5b506007610869600186610ec3565b8154811061088757634e487b7160e01b600052603260045260246000fd5b600091825260208083203380855260038352604080862060029590950290920180548555600190810154948101805460ff191660ff90961615159590951790945560059092528084203490556008805493840181559093527ff3f7a9fe364faab93b216da50a3214154f22a0a2b415b23a84c8169e8b636ee390910180546001600160a01b031916821790559051600490610923908690610ce2565b90815260405190819003602001902080546001600160a01b03929092166001600160a01b031990921691909117905561095b846109a5565b6001805490600061096b83610eda565b90915550506001543360009081526006602052604090205550505050565b6003602052600090815260409020805460019091015460ff1682565b6001600761054b8284610ec3565b600f5460105460ff1682565b60025482116109e05760405162461bcd60e51b81526004016106e490610e07565b6002546109ee906001610e6c565b8214610a0c5760405162461bcd60e51b81526004016106e490610db7565b8015610a2a5760405162461bcd60e51b81526004016106e490610d2f565b604080518082019091528281528115156020820190815260078054600181018255600091825283517fa66cc928b5edb82af9bd49922954155ab7b0942694bea4ce44661d9a8736c68860029283029081019190915592517fa66cc928b5edb82af9bd49922954155ab7b0942694bea4ce44661d9a8736c689909301805460ff19169315159390931790925581549190610ac283610eda565b9190505550505050565b60056020526000908152604090205481565b60078181548110610aee57600080fd5b60009182526020909120600290910201805460019091015490915060ff1682565b6000806105c8836106b4610ea4565b6001600160a01b03811660009081526006602052604081205481906105c890600190610ec3565b60088181548110610b5557600080fd5b6000918252602090912001546001600160a01b0316905081565b600082601f830112610b7f578081fd5b813567ffffffffffffffff80821115610b9a57610b9a610f0b565b604051601f8301601f191681016020018281118282101715610bbe57610bbe610f0b565b604052828152848301602001861015610bd5578384fd5b82602086016020830137918201602001929092529392505050565b600060208284031215610c01578081fd5b81356001600160a01b03811681146105c8578182fd5b600060208284031215610c28578081fd5b813567ffffffffffffffff811115610c3e578182fd5b610c4a84828501610b6f565b949350505050565b600060208284031215610c63578081fd5b5035919050565b60008060408385031215610c7c578081fd5b8235915060208301358015158114610c92578182fd5b809150509250929050565b60008060408385031215610caf578182fd5b82359150602083013567ffffffffffffffff811115610ccc578182fd5b610cd885828601610b6f565b9150509250929050565b60008251815b81811015610d025760208186018101518583015201610ce8565b81811115610d105782828501525b509190910192915050565b6001600160a01b0391909116815260200190565b602080825260159082015274626f6f6c65616e206d7573742062652066616c736560581b604082015260600190565b60208082526010908201526f4e6f7420656e6f756768206d6f6e657960801b604082015260600190565b602080825260159082015274151a1a5cc81c9bdbdb481a5cc81bd8d8dd5c1a5959605a1b604082015260600190565b60208082526030908201527f526f6f6d6e6f206d75737420626520746865206e657874206e756d626572206160408201526f66746572206c61737420726f6f6d6e6f60801b606082015260800190565b602080825260139082015272526f6f6d20616c72656164792065786973747360681b604082015260600190565b60208082526005908201526422b93937b960d91b604082015260600190565b90815260200190565b9182521515602082015260400190565b60008219821115610e7f57610e7f610ef5565b500190565b600082610e9f57634e487b7160e01b81526012600452602481fd5b500490565b6000816000190483118215151615610ebe57610ebe610ef5565b500290565b600082821015610ed557610ed5610ef5565b500390565b6000600019821415610eee57610eee610ef5565b5060010190565b634e487b7160e01b600052601160045260246000fd5b634e487b7160e01b600052604160045260246000fdfea264697066735822122009369c8d94943ee3be99c03fab341b4ed2b5218fec6aecfa0dcb2e4f73aa790564736f6c63430008000033",
  "bytecodeSha1": "944092b3d83c37e5ce29c23f49317f4d89eecc81",
  "compiler": {
    "evm_version": "istanbul",
    "optimizer": {
      "enabled": true,
      "runs": 200
    },
    "version": "0.8.0+commit.c7dfd78e"
  },
  "contractName": "bookHotel",
  "language": "Solidity",
  "natspec": {
    "kind": "dev",
    "methods": {},
    "version": 1
  },
  "opcodes": "PUSH1 0x80 PUSH1 0x40 MSTORE PUSH1 0x4 CALLDATASIZE LT PUSH2 0x140 JUMPI PUSH1 0x0 CALLDATALOAD PUSH1 0xE0 SHR DUP1 PUSH4 0x9777D8E3 GT PUSH2 0xB6 JUMPI DUP1 PUSH4 0xBD8A48F8 GT PUSH2 0x6F JUMPI DUP1 PUSH4 0xBD8A48F8 EQ PUSH2 0x333 JUMPI DUP1 PUSH4 0xD6EDD956 EQ PUSH2 0x353 JUMPI DUP1 PUSH4 0xE61362E4 EQ PUSH2 0x373 JUMPI DUP1 PUSH4 0xF028CAD5 EQ PUSH2 0x393 JUMPI DUP1 PUSH4 0xF76AFCE8 EQ PUSH2 0x3B3 JUMPI DUP1 PUSH4 0xF7B0F74B EQ PUSH2 0x3D3 JUMPI PUSH2 0x140 JUMP JUMPDEST DUP1 PUSH4 0x9777D8E3 EQ PUSH2 0x28B JUMPI DUP1 PUSH4 0x9F5F187E EQ PUSH2 0x2AB JUMPI DUP1 PUSH4 0xA22C93C6 EQ PUSH2 0x2CB JUMPI DUP1 PUSH4 0xA35CB356 EQ PUSH2 0x2DE JUMPI DUP1 PUSH4 0xAFAAE0EE EQ PUSH2 0x2FE JUMPI DUP1 PUSH4 0xB3E7656F EQ PUSH2 0x31E JUMPI PUSH2 0x140 JUMP JUMPDEST DUP1 PUSH4 0x52C1901E GT PUSH2 0x108 JUMPI DUP1 PUSH4 0x52C1901E EQ PUSH2 0x1EA JUMPI DUP1 PUSH4 0x76025F11 EQ PUSH2 0x1FF JUMPI DUP1 PUSH4 0x7B71726A EQ PUSH2 0x21F JUMPI DUP1 PUSH4 0x8C92A350 EQ PUSH2 0x234 JUMPI DUP1 PUSH4 0x8DA5CB5B EQ PUSH2 0x261 JUMPI DUP1 PUSH4 0x93D51DD4 EQ PUSH2 0x276 JUMPI PUSH2 0x140 JUMP JUMPDEST DUP1 PUSH4 0xE8A523E EQ PUSH2 0x145 JUMPI DUP1 PUSH4 0x168DF881 EQ PUSH2 0x171 JUMPI DUP1 PUSH4 0x1FEE3FB5 EQ PUSH2 0x19E JUMPI DUP1 PUSH4 0x2B4FC2BC EQ PUSH2 0x1B3 JUMPI DUP1 PUSH4 0x43FD84C9 EQ PUSH2 0x1C8 JUMPI JUMPDEST PUSH1 0x0 DUP1 REVERT JUMPDEST CALLVALUE DUP1 ISZERO PUSH2 0x151 JUMPI PUSH1 0x0 DUP1 REVERT JUMPDEST POP PUSH2 0x15A PUSH2 0x3F3 JUMP JUMPDEST PUSH1 0x40 MLOAD PUSH2 0x168 SWAP3 SWAP2 SWAP1 PUSH2 0xE5C JUMP JUMPDEST PUSH1 0x40 MLOAD DUP1 SWAP2 SUB SWAP1 RETURN JUMPDEST CALLVALUE DUP1 ISZERO PUSH2 0x17D JUMPI PUSH1 0x0 DUP1 REVERT JUMPDEST POP PUSH2 0x191 PUSH2 0x18C CALLDATASIZE PUSH1 0x4 PUSH2 0xBF0 JUMP JUMPDEST PUSH2 0x3FF JUMP JUMPDEST PUSH1 0x40 MLOAD PUSH2 0x168 SWAP2 SWAP1 PUSH2 0xE53 JUMP JUMPDEST CALLVALUE DUP1 ISZERO PUSH2 0x1AA JUMPI PUSH1 0x0 DUP1 REVERT JUMPDEST POP PUSH2 0x191 PUSH2 0x411 JUMP JUMPDEST CALLVALUE DUP1 ISZERO PUSH2 0x1BF JUMPI PUSH1 0x0 DUP1 REVERT JUMPDEST POP PUSH2 0x15A PUSH2 0x530 JUMP JUMPDEST CALLVALUE DUP1 ISZERO PUSH2 0x1D4 JUMPI PUSH1 0x0 DUP1 REVERT JUMPDEST POP PUSH2 0x1E8 PUSH2 0x1E3 CALLDATASIZE PUSH1 0x4 PUSH2 0xC52 JUMP JUMPDEST PUSH2 0x53C JUMP JUMPDEST STOP JUMPDEST CALLVALUE DUP1 ISZERO PUSH2 0x1F6 JUMPI PUSH1 0x0 DUP1 REVERT JUMPDEST POP PUSH2 0x15A PUSH2 0x58E JUMP JUMPDEST CALLVALUE DUP1 ISZERO PUSH2 0x20B JUMPI PUSH1 0x0 DUP1 REVERT JUMPDEST POP PUSH2 0x191 PUSH2 0x21A CALLDATASIZE PUSH1 0x4 PUSH2 0xBF0 JUMP JUMPDEST PUSH2 0x59A JUMP JUMPDEST CALLVALUE DUP1 ISZERO PUSH2 0x22B JUMPI PUSH1 0x0 DUP1 REVERT JUMPDEST POP PUSH2 0x191 PUSH2 0x5CF JUMP JUMPDEST CALLVALUE DUP1 ISZERO PUSH2 0x240 JUMPI PUSH1 0x0 DUP1 REVERT JUMPDEST POP PUSH2 0x254 PUSH2 0x24F CALLDATASIZE PUSH1 0x4 PUSH2 0xC17 JUMP JUMPDEST PUSH2 0x5D5 JUMP JUMPDEST PUSH1 0x40 MLOAD PUSH2 0x168 SWAP2 SWAP1 PUSH2 0xD1B JUMP JUMPDEST CALLVALUE DUP1 ISZERO PUSH2 0x26D JUMPI PUSH1 0x0 DUP1 REVERT JUMPDEST POP PUSH2 0x254 PUSH2 0x609 JUMP JUMPDEST CALLVALUE DUP1 ISZERO PUSH2 0x282 JUMPI PUSH1 0x0 DUP1 REVERT JUMPDEST POP PUSH2 0x15A PUSH2 0x618 JUMP JUMPDEST CALLVALUE DUP1 ISZERO PUSH2 0x297 JUMPI PUSH1 0x0 DUP1 REVERT JUMPDEST POP PUSH2 0x1E8 PUSH2 0x2A6 CALLDATASIZE PUSH1 0x4 PUSH2 0xC9D JUMP JUMPDEST PUSH2 0x624 JUMP JUMPDEST CALLVALUE DUP1 ISZERO PUSH2 0x2B7 JUMPI PUSH1 0x0 DUP1 REVERT JUMPDEST POP PUSH2 0x254 PUSH2 0x2C6 CALLDATASIZE PUSH1 0x4 PUSH2 0xC17 JUMP JUMPDEST PUSH2 0x755 JUMP JUMPDEST PUSH2 0x1E8 PUSH2 0x2D9 CALLDATASIZE PUSH1 0x4 PUSH2 0xC9D JUMP JUMPDEST PUSH2 0x77B JUMP JUMPDEST CALLVALUE DUP1 ISZERO PUSH2 0x2EA JUMPI PUSH1 0x0 DUP1 REVERT JUMPDEST POP PUSH2 0x15A PUSH2 0x2F9 CALLDATASIZE PUSH1 0x4 PUSH2 0xBF0 JUMP JUMPDEST PUSH2 0x989 JUMP JUMPDEST CALLVALUE DUP1 ISZERO PUSH2 0x30A JUMPI PUSH1 0x0 DUP1 REVERT JUMPDEST POP PUSH2 0x1E8 PUSH2 0x319 CALLDATASIZE PUSH1 0x4 PUSH2 0xC52 JUMP JUMPDEST PUSH2 0x9A5 JUMP JUMPDEST CALLVALUE DUP1 ISZERO PUSH2 0x32A JUMPI PUSH1 0x0 DUP1 REVERT JUMPDEST POP PUSH2 0x15A PUSH2 0x9B3 JUMP JUMPDEST CALLVALUE DUP1 ISZERO PUSH2 0x33F JUMPI PUSH1 0x0 DUP1 REVERT JUMPDEST POP PUSH2 0x1E8 PUSH2 0x34E CALLDATASIZE PUSH1 0x4 PUSH2 0xC6A JUMP JUMPDEST PUSH2 0x9BF JUMP JUMPDEST CALLVALUE DUP1 ISZERO PUSH2 0x35F JUMPI PUSH1 0x0 DUP1 REVERT JUMPDEST POP PUSH2 0x191 PUSH2 0x36E CALLDATASIZE PUSH1 0x4 PUSH2 0xBF0 JUMP JUMPDEST PUSH2 0xACC JUMP JUMPDEST CALLVALUE DUP1 ISZERO PUSH2 0x37F JUMPI PUSH1 0x0 DUP1 REVERT JUMPDEST POP PUSH2 0x15A PUSH2 0x38E CALLDATASIZE PUSH1 0x4 PUSH2 0xC52 JUMP JUMPDEST PUSH2 0xADE JUMP JUMPDEST CALLVALUE DUP1 ISZERO PUSH2 0x39F JUMPI PUSH1 0x0 DUP1 REVERT JUMPDEST POP PUSH2 0x191 PUSH2 0x3AE CALLDATASIZE PUSH1 0x4 PUSH2 0xC52 JUMP JUMPDEST PUSH2 0xB0F JUMP JUMPDEST CALLVALUE DUP1 ISZERO PUSH2 0x3BF JUMPI PUSH1 0x0 DUP1 REVERT JUMPDEST POP PUSH2 0x191 PUSH2 0x3CE CALLDATASIZE PUSH1 0x4 PUSH2 0xBF0 JUMP JUMPDEST PUSH2 0xB1E JUMP JUMPDEST CALLVALUE DUP1 ISZERO PUSH2 0x3DF JUMPI PUSH1 0x0 DUP1 REVERT JUMPDEST POP PUSH2 0x254 PUSH2 0x3EE CALLDATASIZE PUSH1 0x4 PUSH2 0xC52 JUMP JUMPDEST PUSH2 0xB45 JUMP JUMPDEST PUSH1 0x9 SLOAD PUSH1 0xA SLOAD PUSH1 0xFF AND DUP3 JUMP JUMPDEST PUSH1 0x6 PUSH1 0x20 MSTORE PUSH1 0x0 SWAP1 DUP2 MSTORE PUSH1 0x40 SWAP1 KECCAK256 SLOAD DUP2 JUMP JUMPDEST PUSH1 0x7 DUP1 SLOAD PUSH1 0x1 DUP1 DUP3 ADD DUP4 SSTORE PUSH1 0x0 DUP4 SWAP1 MSTORE PUSH1 0x9 SLOAD PUSH32 0xA66CC928B5EDB82AF9BD49922954155AB7B0942694BEA4CE44661D9A8736C688 PUSH1 0x2 SWAP4 DUP5 MUL DUP2 DUP2 ADD SWAP3 SWAP1 SWAP3 SSTORE PUSH1 0xA SLOAD PUSH32 0xA66CC928B5EDB82AF9BD49922954155AB7B0942694BEA4CE44661D9A8736C689 SWAP3 DUP4 ADD DUP1 SLOAD PUSH1 0xFF NOT SWAP1 DUP2 AND PUSH1 0xFF SWAP4 DUP5 AND ISZERO ISZERO OR SWAP1 SWAP2 SSTORE DUP7 SLOAD DUP1 DUP7 ADD DUP9 SSTORE PUSH1 0xB SLOAD SWAP1 DUP8 MUL DUP1 DUP6 ADD SWAP2 SWAP1 SWAP2 SSTORE PUSH1 0xC SLOAD SWAP1 DUP6 ADD DUP1 SLOAD DUP4 AND SWAP2 DUP5 AND ISZERO ISZERO SWAP2 SWAP1 SWAP2 OR SWAP1 SSTORE DUP7 SLOAD DUP1 DUP7 ADD DUP9 SSTORE PUSH1 0xD SLOAD SWAP1 DUP8 MUL DUP1 DUP6 ADD SWAP2 SWAP1 SWAP2 SSTORE PUSH1 0xE SLOAD SWAP1 DUP6 ADD DUP1 SLOAD DUP4 AND SWAP2 DUP5 AND ISZERO ISZERO SWAP2 SWAP1 SWAP2 OR SWAP1 SSTORE DUP7 SLOAD DUP1 DUP7 ADD DUP9 SSTORE PUSH1 0xF SLOAD SWAP1 DUP8 MUL DUP1 DUP6 ADD SWAP2 SWAP1 SWAP2 SSTORE PUSH1 0x10 SLOAD SWAP1 DUP6 ADD DUP1 SLOAD DUP4 AND SWAP2 DUP5 AND ISZERO ISZERO SWAP2 SWAP1 SWAP2 OR SWAP1 SSTORE DUP7 SLOAD SWAP5 DUP6 ADD DUP8 SSTORE PUSH1 0x11 SLOAD SWAP5 SWAP1 SWAP6 MUL SWAP2 DUP3 ADD SWAP4 SWAP1 SWAP4 SSTORE PUSH1 0x12 SLOAD SWAP2 ADD DUP1 SLOAD SWAP1 SWAP4 AND SWAP2 AND ISZERO ISZERO OR SWAP1 SSTORE SLOAD SWAP1 JUMP JUMPDEST PUSH1 0xD SLOAD PUSH1 0xE SLOAD PUSH1 0xFF AND DUP3 JUMP JUMPDEST PUSH1 0x0 PUSH1 0x7 PUSH2 0x54B PUSH1 0x1 DUP5 PUSH2 0xEC3 JUMP JUMPDEST DUP2 SLOAD DUP2 LT PUSH2 0x569 JUMPI PUSH4 0x4E487B71 PUSH1 0xE0 SHL PUSH1 0x0 MSTORE PUSH1 0x32 PUSH1 0x4 MSTORE PUSH1 0x24 PUSH1 0x0 REVERT JUMPDEST PUSH1 0x0 SWAP2 DUP3 MSTORE PUSH1 0x20 SWAP1 SWAP2 KECCAK256 PUSH1 0x2 SWAP1 SWAP2 MUL ADD PUSH1 0x1 ADD DUP1 SLOAD PUSH1 0xFF NOT AND SWAP2 ISZERO ISZERO SWAP2 SWAP1 SWAP2 OR SWAP1 SSTORE POP JUMP JUMPDEST PUSH1 0x11 SLOAD PUSH1 0x12 SLOAD PUSH1 0xFF AND DUP3 JUMP JUMPDEST PUSH1 0x1 PUSH1 0x1 PUSH1 0xA0 SHL SUB DUP2 AND PUSH1 0x0 SWAP1 DUP2 MSTORE PUSH1 0x5 PUSH1 0x20 MSTORE PUSH1 0x40 DUP2 KECCAK256 SLOAD DUP2 SWAP1 PUSH2 0x5C8 SWAP1 PUSH8 0xDE0B6B3A7640000 SWAP1 PUSH2 0xE84 JUMP JUMPDEST SWAP4 SWAP3 POP POP POP JUMP JUMPDEST PUSH1 0x2 SLOAD DUP2 JUMP JUMPDEST PUSH1 0x0 DUP1 PUSH1 0x4 DUP4 PUSH1 0x40 MLOAD PUSH2 0x5E8 SWAP2 SWAP1 PUSH2 0xCE2 JUMP JUMPDEST SWAP1 DUP2 MSTORE PUSH1 0x40 MLOAD SWAP1 DUP2 SWAP1 SUB PUSH1 0x20 ADD SWAP1 KECCAK256 SLOAD PUSH1 0x1 PUSH1 0x1 PUSH1 0xA0 SHL SUB AND SWAP2 POP POP SWAP2 SWAP1 POP JUMP JUMPDEST PUSH1 0x0 SLOAD PUSH1 0x1 PUSH1 0x1 PUSH1 0xA0 SHL SUB AND DUP2 JUMP JUMPDEST PUSH1 0xB SLOAD PUSH1 0xC SLOAD PUSH1 0xFF AND DUP3 JUMP JUMPDEST PUSH1 0x0 PUSH1 0x7 PUSH2 0x633 PUSH1 0x1 DUP6 PUSH2 0xEC3 JUMP JUMPDEST DUP2 SLOAD DUP2 LT PUSH2 0x651 JUMPI PUSH4 0x4E487B71 PUSH1 0xE0 SHL PUSH1 0x0 MSTORE PUSH1 0x32 PUSH1 0x4 MSTORE PUSH1 0x24 PUSH1 0x0 REVERT JUMPDEST PUSH1 0x0 SWAP2 DUP3 MSTORE PUSH1 0x20 SWAP2 DUP3 SWAP1 KECCAK256 PUSH1 0x40 DUP1 MLOAD DUP1 DUP3 ADD SWAP1 SWAP2 MSTORE PUSH1 0x2 SWAP1 SWAP3 MUL ADD DUP1 SLOAD DUP1 DUP4 MSTORE PUSH1 0x1 SWAP2 DUP3 ADD SLOAD PUSH1 0xFF AND ISZERO ISZERO SWAP4 DUP4 ADD DUP5 SWAP1 MSTORE SWAP2 SWAP4 POP SWAP1 SWAP2 EQ DUP1 ISZERO PUSH2 0x693 JUMPI POP DUP4 DUP2 EQ JUMPDEST DUP1 ISZERO PUSH2 0x6C8 JUMPI POP PUSH1 0x4 DUP4 PUSH1 0x40 MLOAD PUSH2 0x6AA SWAP2 SWAP1 PUSH2 0xCE2 JUMP JUMPDEST SWAP1 DUP2 MSTORE PUSH1 0x40 MLOAD SWAP1 DUP2 SWAP1 SUB PUSH1 0x20 ADD SWAP1 KECCAK256 SLOAD CALLER PUSH1 0x1 PUSH1 0x1 PUSH1 0xA0 SHL SUB SWAP1 SWAP2 AND EQ JUMPDEST PUSH2 0x6ED JUMPI PUSH1 0x40 MLOAD PUSH3 0x461BCD PUSH1 0xE5 SHL DUP2 MSTORE PUSH1 0x4 ADD PUSH2 0x6E4 SWAP1 PUSH2 0xE34 JUMP JUMPDEST PUSH1 0x40 MLOAD DUP1 SWAP2 SUB SWAP1 REVERT JUMPDEST PUSH2 0x6F6 DUP5 PUSH2 0x53C JUMP JUMPDEST PUSH1 0x0 PUSH2 0x701 CALLER PUSH2 0xB1E JUMP JUMPDEST SWAP1 POP PUSH1 0x8 DUP2 DUP2 SLOAD DUP2 LT PUSH2 0x724 JUMPI PUSH4 0x4E487B71 PUSH1 0xE0 SHL PUSH1 0x0 MSTORE PUSH1 0x32 PUSH1 0x4 MSTORE PUSH1 0x24 PUSH1 0x0 REVERT JUMPDEST PUSH1 0x0 SWAP2 DUP3 MSTORE PUSH1 0x20 SWAP1 SWAP2 KECCAK256 ADD DUP1 SLOAD PUSH1 0x1 PUSH1 0x1 PUSH1 0xA0 SHL SUB NOT AND SWAP1 SSTORE PUSH1 0x1 DUP1 SLOAD PUSH2 0x74B SWAP2 SWAP1 PUSH2 0xEC3 JUMP JUMPDEST PUSH1 0x1 SSTORE POP POP POP POP POP JUMP JUMPDEST DUP1 MLOAD PUSH1 0x20 DUP2 DUP4 ADD DUP2 ADD DUP1 MLOAD PUSH1 0x4 DUP3 MSTORE SWAP3 DUP3 ADD SWAP2 SWAP1 SWAP4 ADD KECCAK256 SWAP2 MSTORE SLOAD PUSH1 0x1 PUSH1 0x1 PUSH1 0xA0 SHL SUB AND DUP2 JUMP JUMPDEST PUSH2 0x1F4 DUP1 PUSH2 0x788 CALLVALUE PUSH2 0xB0F JUMP JUMPDEST LT ISZERO PUSH2 0x7A6 JUMPI PUSH1 0x40 MLOAD PUSH3 0x461BCD PUSH1 0xE5 SHL DUP2 MSTORE PUSH1 0x4 ADD PUSH2 0x6E4 SWAP1 PUSH2 0xD5E JUMP JUMPDEST PUSH1 0x0 PUSH1 0x7 PUSH2 0x7B5 PUSH1 0x1 DUP7 PUSH2 0xEC3 JUMP JUMPDEST DUP2 SLOAD DUP2 LT PUSH2 0x7D3 JUMPI PUSH4 0x4E487B71 PUSH1 0xE0 SHL PUSH1 0x0 MSTORE PUSH1 0x32 PUSH1 0x4 MSTORE PUSH1 0x24 PUSH1 0x0 REVERT JUMPDEST PUSH1 0x0 SWAP2 DUP3 MSTORE PUSH1 0x20 SWAP2 DUP3 SWAP1 KECCAK256 PUSH1 0x40 DUP1 MLOAD DUP1 DUP3 ADD SWAP1 SWAP2 MSTORE PUSH1 0x2 SWAP1 SWAP3 MUL ADD DUP1 SLOAD DUP3 MSTORE PUSH1 0x1 ADD SLOAD PUSH1 0xFF AND ISZERO DUP1 ISZERO SWAP3 DUP3 ADD SWAP3 SWAP1 SWAP3 MSTORE SWAP2 POP PUSH2 0x821 JUMPI PUSH1 0x40 MLOAD PUSH3 0x461BCD PUSH1 0xE5 SHL DUP2 MSTORE PUSH1 0x4 ADD PUSH2 0x6E4 SWAP1 PUSH2 0xD88 JUMP JUMPDEST PUSH1 0x0 DUP1 SLOAD PUSH1 0x40 MLOAD PUSH1 0x1 PUSH1 0x1 PUSH1 0xA0 SHL SUB SWAP1 SWAP2 AND SWAP2 CALLVALUE DUP1 ISZERO PUSH2 0x8FC MUL SWAP3 SWAP1 SWAP2 DUP2 DUP2 DUP2 DUP6 DUP9 DUP9 CALL SWAP4 POP POP POP POP ISZERO DUP1 ISZERO PUSH2 0x85B JUMPI RETURNDATASIZE PUSH1 0x0 DUP1 RETURNDATACOPY RETURNDATASIZE PUSH1 0x0 REVERT JUMPDEST POP PUSH1 0x7 PUSH2 0x869 PUSH1 0x1 DUP7 PUSH2 0xEC3 JUMP JUMPDEST DUP2 SLOAD DUP2 LT PUSH2 0x887 JUMPI PUSH4 0x4E487B71 PUSH1 0xE0 SHL PUSH1 0x0 MSTORE PUSH1 0x32 PUSH1 0x4 MSTORE PUSH1 0x24 PUSH1 0x0 REVERT JUMPDEST PUSH1 0x0 SWAP2 DUP3 MSTORE PUSH1 0x20 DUP1 DUP4 KECCAK256 CALLER DUP1 DUP6 MSTORE PUSH1 0x3 DUP4 MSTORE PUSH1 0x40 DUP1 DUP7 KECCAK256 PUSH1 0x2 SWAP6 SWAP1 SWAP6 MUL SWAP1 SWAP3 ADD DUP1 SLOAD DUP6 SSTORE PUSH1 0x1 SWAP1 DUP2 ADD SLOAD SWAP5 DUP2 ADD DUP1 SLOAD PUSH1 0xFF NOT AND PUSH1 0xFF SWAP1 SWAP7 AND ISZERO ISZERO SWAP6 SWAP1 SWAP6 OR SWAP1 SWAP5 SSTORE PUSH1 0x5 SWAP1 SWAP3 MSTORE DUP1 DUP5 KECCAK256 CALLVALUE SWAP1 SSTORE PUSH1 0x8 DUP1 SLOAD SWAP4 DUP5 ADD DUP2 SSTORE SWAP1 SWAP4 MSTORE PUSH32 0xF3F7A9FE364FAAB93B216DA50A3214154F22A0A2B415B23A84C8169E8B636EE3 SWAP1 SWAP2 ADD DUP1 SLOAD PUSH1 0x1 PUSH1 0x1 PUSH1 0xA0 SHL SUB NOT AND DUP3 OR SWAP1 SSTORE SWAP1 MLOAD PUSH1 0x4 SWAP1 PUSH2 0x923 SWAP1 DUP7 SWAP1 PUSH2 0xCE2 JUMP JUMPDEST SWAP1 DUP2 MSTORE PUSH1 0x40 MLOAD SWAP1 DUP2 SWAP1 SUB PUSH1 0x20 ADD SWAP1 KECCAK256 DUP1 SLOAD PUSH1 0x1 PUSH1 0x1 PUSH1 0xA0 SHL SUB SWAP3 SWAP1 SWAP3 AND PUSH1 0x1 PUSH1 0x1 PUSH1 0xA0 SHL SUB NOT SWAP1 SWAP3 AND SWAP2 SWAP1 SWAP2 OR SWAP1 SSTORE PUSH2 0x95B DUP5 PUSH2 0x9A5 JUMP JUMPDEST PUSH1 0x1 DUP1 SLOAD SWAP1 PUSH1 0x0 PUSH2 0x96B DUP4 PUSH2 0xEDA JUMP JUMPDEST SWAP1 SWAP2 SSTORE POP POP PUSH1 0x1 SLOAD CALLER PUSH1 0x0 SWAP1 DUP2 MSTORE PUSH1 0x6 PUSH1 0x20 MSTORE PUSH1 0x40 SWAP1 KECCAK256 SSTORE POP POP POP POP JUMP JUMPDEST PUSH1 0x3 PUSH1 0x20 MSTORE PUSH1 0x0 SWAP1 DUP2 MSTORE PUSH1 0x40 SWAP1 KECCAK256 DUP1 SLOAD PUSH1 0x1 SWAP1 SWAP2 ADD SLOAD PUSH1 0xFF AND DUP3 JUMP JUMPDEST PUSH1 0x1 PUSH1 0x7 PUSH2 0x54B DUP3 DUP5 PUSH2 0xEC3 JUMP JUMPDEST PUSH1 0xF SLOAD PUSH1 0x10 SLOAD PUSH1 0xFF AND DUP3 JUMP JUMPDEST PUSH1 0x2 SLOAD DUP3 GT PUSH2 0x9E0 JUMPI PUSH1 0x40 MLOAD PUSH3 0x461BCD PUSH1 0xE5 SHL DUP2 MSTORE PUSH1 0x4 ADD PUSH2 0x6E4 SWAP1 PUSH2 0xE07 JUMP JUMPDEST PUSH1 0x2 SLOAD PUSH2 0x9EE SWAP1 PUSH1 0x1 PUSH2 0xE6C JUMP JUMPDEST DUP3 EQ PUSH2 0xA0C JUMPI PUSH1 0x40 MLOAD PUSH3 0x461BCD PUSH1 0xE5 SHL DUP2 MSTORE PUSH1 0x4 ADD PUSH2 0x6E4 SWAP1 PUSH2 0xDB7 JUMP JUMPDEST DUP1 ISZERO PUSH2 0xA2A JUMPI PUSH1 0x40 MLOAD PUSH3 0x461BCD PUSH1 0xE5 SHL DUP2 MSTORE PUSH1 0x4 ADD PUSH2 0x6E4 SWAP1 PUSH2 0xD2F JUMP JUMPDEST PUSH1 0x40 DUP1 MLOAD DUP1 DUP3 ADD SWAP1 SWAP2 MSTORE DUP3 DUP2 MSTORE DUP2 ISZERO ISZERO PUSH1 0x20 DUP3 ADD SWAP1 DUP2 MSTORE PUSH1 0x7 DUP1 SLOAD PUSH1 0x1 DUP2 ADD DUP3 SSTORE PUSH1 0x0 SWAP2 DUP3 MSTORE DUP4 MLOAD PUSH32 0xA66CC928B5EDB82AF9BD49922954155AB7B0942694BEA4CE44661D9A8736C688 PUSH1 0x2 SWAP3 DUP4 MUL SWAP1 DUP2 ADD SWAP2 SWAP1 SWAP2 SSTORE SWAP3 MLOAD PUSH32 0xA66CC928B5EDB82AF9BD49922954155AB7B0942694BEA4CE44661D9A8736C689 SWAP1 SWAP4 ADD DUP1 SLOAD PUSH1 0xFF NOT AND SWAP4 ISZERO ISZERO SWAP4 SWAP1 SWAP4 OR SWAP1 SWAP3 SSTORE DUP2 SLOAD SWAP2 SWAP1 PUSH2 0xAC2 DUP4 PUSH2 0xEDA JUMP JUMPDEST SWAP2 SWAP1 POP SSTORE POP POP POP POP JUMP JUMPDEST PUSH1 0x5 PUSH1 0x20 MSTORE PUSH1 0x0 SWAP1 DUP2 MSTORE PUSH1 0x40 SWAP1 KECCAK256 SLOAD DUP2 JUMP JUMPDEST PUSH1 0x7 DUP2 DUP2 SLOAD DUP2 LT PUSH2 0xAEE JUMPI PUSH1 0x0 DUP1 REVERT JUMPDEST PUSH1 0x0 SWAP2 DUP3 MSTORE PUSH1 0x20 SWAP1 SWAP2 KECCAK256 PUSH1 0x2 SWAP1 SWAP2 MUL ADD DUP1 SLOAD PUSH1 0x1 SWAP1 SWAP2 ADD SLOAD SWAP1 SWAP2 POP PUSH1 0xFF AND DUP3 JUMP JUMPDEST PUSH1 0x0 DUP1 PUSH2 0x5C8 DUP4 PUSH2 0x6B4 PUSH2 0xEA4 JUMP JUMPDEST PUSH1 0x1 PUSH1 0x1 PUSH1 0xA0 SHL SUB DUP2 AND PUSH1 0x0 SWAP1 DUP2 MSTORE PUSH1 0x6 PUSH1 0x20 MSTORE PUSH1 0x40 DUP2 KECCAK256 SLOAD DUP2 SWAP1 PUSH2 0x5C8 SWAP1 PUSH1 0x1 SWAP1 PUSH2 0xEC3 JUMP JUMPDEST PUSH1 0x8 DUP2 DUP2 SLOAD DUP2 LT PUSH2 0xB55 JUMPI PUSH1 0x0 DUP1 REVERT JUMPDEST PUSH1 0x0 SWAP2 DUP3 MSTORE PUSH1 0x20 SWAP1 SWAP2 KECCAK256 ADD SLOAD PUSH1 0x1 PUSH1 0x1 PUSH1 0xA0 SHL SUB AND SWAP1 POP DUP2 JUMP JUMPDEST PUSH1 0x0 DUP3 PUSH1 0x1F DUP4 ADD SLT PUSH2 0xB7F JUMPI DUP1 DUP2 REVERT JUMPDEST DUP2 CALLDATALOAD PUSH8 0xFFFFFFFFFFFFFFFF DUP1 DUP3 GT ISZERO PUSH2 0xB9A JUMPI PUSH2 0xB9A PUSH2 0xF0B JUMP JUMPDEST PUSH1 0x40 MLOAD PUSH1 0x1F DUP4 ADD PUSH1 0x1F NOT AND DUP2 ADD PUSH1 0x20 ADD DUP3 DUP2 GT DUP3 DUP3 LT OR ISZERO PUSH2 0xBBE JUMPI PUSH2 0xBBE PUSH2 0xF0B JUMP JUMPDEST PUSH1 0x40 MSTORE DUP3 DUP2 MSTORE DUP5 DUP4 ADD PUSH1 0x20 ADD DUP7 LT ISZERO PUSH2 0xBD5 JUMPI DUP4 DUP5 REVERT JUMPDEST DUP3 PUSH1 0x20 DUP7 ADD PUSH1 0x20 DUP4 ADD CALLDATACOPY SWAP2 DUP3 ADD PUSH1 0x20 ADD SWAP3 SWAP1 SWAP3 MSTORE SWAP4 SWAP3 POP POP POP JUMP JUMPDEST PUSH1 0x0 PUSH1 0x20 DUP3 DUP5 SUB SLT ISZERO PUSH2 0xC01 JUMPI DUP1 DUP2 REVERT JUMPDEST DUP2 CALLDATALOAD PUSH1 0x1 PUSH1 0x1 PUSH1 0xA0 SHL SUB DUP2 AND DUP2 EQ PUSH2 0x5C8 JUMPI DUP2 DUP3 REVERT JUMPDEST PUSH1 0x0 PUSH1 0x20 DUP3 DUP5 SUB SLT ISZERO PUSH2 0xC28 JUMPI DUP1 DUP2 REVERT JUMPDEST DUP2 CALLDATALOAD PUSH8 0xFFFFFFFFFFFFFFFF DUP2 GT ISZERO PUSH2 0xC3E JUMPI DUP2 DUP3 REVERT JUMPDEST PUSH2 0xC4A DUP5 DUP3 DUP6 ADD PUSH2 0xB6F JUMP JUMPDEST SWAP5 SWAP4 POP POP POP POP JUMP JUMPDEST PUSH1 0x0 PUSH1 0x20 DUP3 DUP5 SUB SLT ISZERO PUSH2 0xC63 JUMPI DUP1 DUP2 REVERT JUMPDEST POP CALLDATALOAD SWAP2 SWAP1 POP JUMP JUMPDEST PUSH1 0x0 DUP1 PUSH1 0x40 DUP4 DUP6 SUB SLT ISZERO PUSH2 0xC7C JUMPI DUP1 DUP2 REVERT JUMPDEST DUP3 CALLDATALOAD SWAP2 POP PUSH1 0x20 DUP4 ADD CALLDATALOAD DUP1 ISZERO ISZERO DUP2 EQ PUSH2 0xC92 JUMPI DUP2 DUP3 REVERT JUMPDEST DUP1 SWAP2 POP POP SWAP3 POP SWAP3 SWAP1 POP JUMP JUMPDEST PUSH1 0x0 DUP1 PUSH1 0x40 DUP4 DUP6 SUB SLT ISZERO PUSH2 0xCAF JUMPI DUP2 DUP3 REVERT JUMPDEST DUP3 CALLDATALOAD SWAP2 POP PUSH1 0x20 DUP4 ADD CALLDATALOAD PUSH8 0xFFFFFFFFFFFFFFFF DUP2 GT ISZERO PUSH2 0xCCC JUMPI DUP2 DUP3 REVERT JUMPDEST PUSH2 0xCD8 DUP6 DUP3 DUP7 ADD PUSH2 0xB6F JUMP JUMPDEST SWAP2 POP POP SWAP3 POP SWAP3 SWAP1 POP JUMP JUMPDEST PUSH1 0x0 DUP3 MLOAD DUP2 JUMPDEST DUP2 DUP2 LT ISZERO PUSH2 0xD02 JUMPI PUSH1 0x20 DUP2 DUP7 ADD DUP2 ADD MLOAD DUP6 DUP4 ADD MSTORE ADD PUSH2 0xCE8 JUMP JUMPDEST DUP2 DUP2 GT ISZERO PUSH2 0xD10 JUMPI DUP3 DUP3 DUP6 ADD MSTORE JUMPDEST POP SWAP2 SWAP1 SWAP2 ADD SWAP3 SWAP2 POP POP JUMP JUMPDEST PUSH1 0x1 PUSH1 0x1 PUSH1 0xA0 SHL SUB SWAP2 SWAP1 SWAP2 AND DUP2 MSTORE PUSH1 0x20 ADD SWAP1 JUMP JUMPDEST PUSH1 0x20 DUP1 DUP3 MSTORE PUSH1 0x15 SWAP1 DUP3 ADD MSTORE PUSH21 0x626F6F6C65616E206D7573742062652066616C7365 PUSH1 0x58 SHL PUSH1 0x40 DUP3 ADD MSTORE PUSH1 0x60 ADD SWAP1 JUMP JUMPDEST PUSH1 0x20 DUP1 DUP3 MSTORE PUSH1 0x10 SWAP1 DUP3 ADD MSTORE PUSH16 0x4E6F7420656E6F756768206D6F6E6579 PUSH1 0x80 SHL PUSH1 0x40 DUP3 ADD MSTORE PUSH1 0x60 ADD SWAP1 JUMP JUMPDEST PUSH1 0x20 DUP1 DUP3 MSTORE PUSH1 0x15 SWAP1 DUP3 ADD MSTORE PUSH21 0x151A1A5CC81C9BDBDB481A5CC81BD8D8DD5C1A5959 PUSH1 0x5A SHL PUSH1 0x40 DUP3 ADD MSTORE PUSH1 0x60 ADD SWAP1 JUMP JUMPDEST PUSH1 0x20 DUP1 DUP3 MSTORE PUSH1 0x30 SWAP1 DUP3 ADD MSTORE PUSH32 0x526F6F6D6E6F206D75737420626520746865206E657874206E756D6265722061 PUSH1 0x40 DUP3 ADD MSTORE PUSH16 0x66746572206C61737420726F6F6D6E6F PUSH1 0x80 SHL PUSH1 0x60 DUP3 ADD MSTORE PUSH1 0x80 ADD SWAP1 JUMP JUMPDEST PUSH1 0x20 DUP1 DUP3 MSTORE PUSH1 0x13 SWAP1 DUP3 ADD MSTORE PUSH19 0x526F6F6D20616C726561647920657869737473 PUSH1 0x68 SHL PUSH1 0x40 DUP3 ADD MSTORE PUSH1 0x60 ADD SWAP1 JUMP JUMPDEST PUSH1 0x20 DUP1 DUP3 MSTORE PUSH1 0x5 SWAP1 DUP3 ADD MSTORE PUSH5 0x22B93937B9 PUSH1 0xD9 SHL PUSH1 0x40 DUP3 ADD MSTORE PUSH1 0x60 ADD SWAP1 JUMP JUMPDEST SWAP1 DUP2 MSTORE PUSH1 0x20 ADD SWAP1 JUMP JUMPDEST SWAP2 DUP3 MSTORE ISZERO ISZERO PUSH1 0x20 DUP3 ADD MSTORE PUSH1 0x40 ADD SWAP1 JUMP JUMPDEST PUSH1 0x0 DUP3 NOT DUP3 GT ISZERO PUSH2 0xE7F JUMPI PUSH2 0xE7F PUSH2 0xEF5 JUMP JUMPDEST POP ADD SWAP1 JUMP JUMPDEST PUSH1 0x0 DUP3 PUSH2 0xE9F JUMPI PUSH4 0x4E487B71 PUSH1 0xE0 SHL DUP2 MSTORE PUSH1 0x12 PUSH1 0x4 MSTORE PUSH1 0x24 DUP2 REVERT JUMPDEST POP DIV SWAP1 JUMP JUMPDEST PUSH1 0x0 DUP2 PUSH1 0x0 NOT DIV DUP4 GT DUP3 ISZERO ISZERO AND ISZERO PUSH2 0xEBE JUMPI PUSH2 0xEBE PUSH2 0xEF5 JUMP JUMPDEST POP MUL SWAP1 JUMP JUMPDEST PUSH1 0x0 DUP3 DUP3 LT ISZERO PUSH2 0xED5 JUMPI PUSH2 0xED5 PUSH2 0xEF5 JUMP JUMPDEST POP SUB SWAP1 JUMP JUMPDEST PUSH1 0x0 PUSH1 0x0 NOT DUP3 EQ ISZERO PUSH2 0xEEE JUMPI PUSH2 0xEEE PUSH2 0xEF5 JUMP JUMPDEST POP PUSH1 0x1 ADD SWAP1 JUMP JUMPDEST PUSH4 0x4E487B71 PUSH1 0xE0 SHL PUSH1 0x0 MSTORE PUSH1 0x11 PUSH1 0x4 MSTORE PUSH1 0x24 PUSH1 0x0 REVERT JUMPDEST PUSH4 0x4E487B71 PUSH1 0xE0 SHL PUSH1 0x0 MSTORE PUSH1 0x41 PUSH1 0x4 MSTORE PUSH1 0x24 PUSH1 0x0 REVERT INVALID LOG2 PUSH5 0x6970667358 0x22 SLT KECCAK256 MULMOD CALLDATASIZE SWAP13 DUP14 SWAP5 SWAP5 RETURNDATACOPY 0xE3 0xBE SWAP10 0xC0 EXTCODEHASH 0xAB CALLVALUE SHL 0x4E 0xD2 0xB5 0x21 DUP16 0xEC PUSH11 0xECFA0DCB2E4F73AA790564 PUSH20 0x6F6C634300080000330000000000000000000000 ",
  "sha1": "102ad3f47988cf8129b5403f604d243c993bd170",
  "source": "// SPDX-License-Identifier: MIT\npragma solidity ^0.8.0;\n\ncontract bookHotel{\t\n\n\taddress payable public owner;\n\n\tconstructor(){\n\t\towner = payable(msg.sender);\n\t\tcreatedefhot();\n\t}  \n\n\tuint256 count;\n\tuint256 public hcount = 5;\n\n\tstruct Hotel{\n\t\tuint256 roomNo;\t\t\n\t\tbool isOccupied;\t\n\t}\n\t\t\n\tmapping(address => Hotel) public bookertoroom;\n\tmapping(string => address) public roomtobooker;\n\tmapping(address => uint256) public addrtoamntpaid;\t\n\tmapping(address => uint256) public addrtoposinmapp;\t\n\n   \n\tHotel[] public hotelroomsarray;\n\taddress[] public bookers;\n\n\tHotel public room1 = Hotel(\n\t\t{\n\t\t\troomNo: 1,\n\t\t\tisOccupied: false\t\t\t\n\t\t}\n\t);\t\n\n\tHotel public room2 = Hotel(\n\t\t{\n\t\t\troomNo: 2,\n\t\t\tisOccupied: false\t\t\t\n\t\t}\n\t);\t\n\n\tHotel public room3 = Hotel(\n\t\t{\n\t\t\troomNo: 3,\n\t\t\tisOccupied: false\t\t\t\n\t\t}\n\t);\t\n\n\tHotel public room4 = Hotel(\n\t\t{\n\t\t\troomNo: 4,\n\t\t\tisOccupied: false\t\t\t\n\t\t}\n\t);\t\n\n\tHotel public room5 = Hotel(\n\t\t{\n\t\t\troomNo: 5,\n\t\t\tisOccupied: false\t\t\t\n\t\t}\n\t);\t\t\n\n\tmodifier uptofee{\n\t\tuint256 fee = 500;\n\t\trequire(ETHtoUSD(msg.value) >= fee, \"Not enough money\");\n\t\t_;\n\t}\n\n\tmodifier onlyOwner{\n\t\trequire(msg.sender == owner, \"You are not the owner\");\n\t\t_;\n\t}\t\n\n\tfunction createdefhot() public returns(uint256){\n\t\thotelroomsarray.push(room1);\n\t\thotelroomsarray.push(room2);\n\t\thotelroomsarray.push(room3);\n\t\thotelroomsarray.push(room4);\n\t\thotelroomsarray.push(room5);\n\t\treturn hotelroomsarray.length;\n\t}\t\n\n\tfunction newhotel(uint256 _num, bool _isoccupied) public {\n\t\trequire(_num > hcount, \"Room already exists\");\n\t\trequire(_num == hcount + 1, \"Roomno must be the next number after last roomno\");\n\t\trequire(_isoccupied == false, \"boolean must be false\");\t\t\n\t\tHotel memory room = Hotel(_num, _isoccupied);\n\t\thotelroomsarray.push(room);\n\t\thcount++;\n\t}\n\n\tfunction occupy(uint256 __index) public {\n\t\thotelroomsarray[__index - 1].isOccupied = true;\n\t}\n\t\n\tfunction deoccupy(uint256 __index) public {\n\t\thotelroomsarray[__index - 1].isOccupied = false;\n\t}\n\n\tfunction bookroom(uint256 _index, string memory _name) public payable uptofee{\n\t\tHotel memory wanted = hotelroomsarray[_index - 1];\n\t\trequire(wanted.isOccupied == false, \"This room is occupied\");\t\t\t\t\t\t\t\t\n\t\towner.transfer(msg.value);\n\t\tbookertoroom[msg.sender] = hotelroomsarray[_index - 1];\n\t\taddrtoamntpaid[msg.sender] = msg.value;\n\t\tbookers.push(msg.sender);\n\t\troomtobooker[_name] = msg.sender; \t\n\t\toccupy(_index);\t\n\t\tcount++;\n\t\taddrtoposinmapp[msg.sender] = count;\n\t}\n\t\n\tfunction leaveroom(uint256 _index, string memory _name) public{\t\t\n\t\tHotel memory unwanted = hotelroomsarray[_index - 1];\n\t\tuint256 unwroomNo = unwanted.roomNo;\n\t\trequire(unwanted.isOccupied == true && unwroomNo == (_index) && msg.sender == roomtobooker[_name], \"Error\");\t\t\t\n\t\t// address payable wepayingto = payable(msg.sender);\n\t\tdeoccupy(_index);\t\n\t\t// uint256 amnthispaid = retrievemap(msg.sender);\t\n\t\tuint256 pos = retrievemappos(msg.sender);\n\t\tdelete bookers[pos];\n\t\tcount = count - 1;\t\n\t}\t\n\n\n\tfunction ETHtoUSD(uint256 _eth) public pure returns(uint256){\n\t\tuint256 convertedeth = (_eth * 1716);\n\t\treturn convertedeth;\n\t}\n\n\tfunction retrievebooker(string memory __name) public view returns(address){\n\t\taddress booker =  roomtobooker[__name];\n\t\treturn booker;\n\t}\t\t\n\n\tfunction retrievemap(address _addr) public view returns(uint256){\n\t\tuint256 amnt = (addrtoamntpaid[_addr] / 1000000000000000000);\n\t\treturn amnt;\n\t}\t\n\n  \t function retrievemappos(address _addr) public view returns(uint256){\n\t\t   uint256 posinarr = addrtoposinmapp[_addr] - 1;\n\t\t   return posinarr;\n\t }\n\n}",
  "sourcePath": "contracts/book.sol",
  "type": "contract"
}